{
  "contractName": "BlockBet",
  "abi": [
    {
      "inputs": [],
      "stateMutability": "nonpayable",
      "type": "constructor"
    },
    {
      "anonymous": false,
      "inputs": [
        {
          "indexed": true,
          "internalType": "address",
          "name": "_from",
          "type": "address"
        },
        {
          "indexed": true,
          "internalType": "address",
          "name": "_to",
          "type": "address"
        },
        {
          "indexed": false,
          "internalType": "uint256",
          "name": "_value",
          "type": "uint256"
        }
      ],
      "name": "Transfer",
      "type": "event"
    },
    {
      "inputs": [],
      "name": "escrow",
      "outputs": [
        {
          "internalType": "address",
          "name": "",
          "type": "address"
        }
      ],
      "stateMutability": "view",
      "type": "function",
      "constant": true
    },
    {
      "inputs": [
        {
          "internalType": "uint256",
          "name": "value",
          "type": "uint256"
        },
        {
          "internalType": "enum BlockBet.Decision",
          "name": "ownerDecision",
          "type": "uint8"
        },
        {
          "internalType": "string",
          "name": "description",
          "type": "string"
        }
      ],
      "name": "createBet",
      "outputs": [
        {
          "internalType": "bool",
          "name": "sufficient",
          "type": "bool"
        }
      ],
      "stateMutability": "nonpayable",
      "type": "function"
    },
    {
      "inputs": [
        {
          "internalType": "string",
          "name": "uuid",
          "type": "string"
        }
      ],
      "name": "getBet",
      "outputs": [
        {
          "components": [
            {
              "internalType": "string",
              "name": "uuid",
              "type": "string"
            },
            {
              "internalType": "uint256",
              "name": "value",
              "type": "uint256"
            },
            {
              "internalType": "string",
              "name": "description",
              "type": "string"
            },
            {
              "internalType": "address",
              "name": "result",
              "type": "address"
            },
            {
              "components": [
                {
                  "internalType": "address",
                  "name": "punterAddress",
                  "type": "address"
                },
                {
                  "internalType": "enum BlockBet.Decision",
                  "name": "decision",
                  "type": "uint8"
                },
                {
                  "internalType": "enum BlockBet.WinnerVote",
                  "name": "winnerVote",
                  "type": "uint8"
                }
              ],
              "internalType": "struct BlockBet.Punter",
              "name": "owner",
              "type": "tuple"
            },
            {
              "components": [
                {
                  "internalType": "address",
                  "name": "punterAddress",
                  "type": "address"
                },
                {
                  "internalType": "enum BlockBet.Decision",
                  "name": "decision",
                  "type": "uint8"
                },
                {
                  "internalType": "enum BlockBet.WinnerVote",
                  "name": "winnerVote",
                  "type": "uint8"
                }
              ],
              "internalType": "struct BlockBet.Punter",
              "name": "challenger",
              "type": "tuple"
            },
            {
              "internalType": "enum BlockBet.Status",
              "name": "status",
              "type": "uint8"
            }
          ],
          "internalType": "struct BlockBet.Bet",
          "name": "bet",
          "type": "tuple"
        }
      ],
      "stateMutability": "view",
      "type": "function",
      "constant": true
    },
    {
      "inputs": [],
      "name": "getBets",
      "outputs": [
        {
          "components": [
            {
              "internalType": "string",
              "name": "uuid",
              "type": "string"
            },
            {
              "internalType": "uint256",
              "name": "value",
              "type": "uint256"
            },
            {
              "internalType": "string",
              "name": "description",
              "type": "string"
            },
            {
              "internalType": "address",
              "name": "result",
              "type": "address"
            },
            {
              "components": [
                {
                  "internalType": "address",
                  "name": "punterAddress",
                  "type": "address"
                },
                {
                  "internalType": "enum BlockBet.Decision",
                  "name": "decision",
                  "type": "uint8"
                },
                {
                  "internalType": "enum BlockBet.WinnerVote",
                  "name": "winnerVote",
                  "type": "uint8"
                }
              ],
              "internalType": "struct BlockBet.Punter",
              "name": "owner",
              "type": "tuple"
            },
            {
              "components": [
                {
                  "internalType": "address",
                  "name": "punterAddress",
                  "type": "address"
                },
                {
                  "internalType": "enum BlockBet.Decision",
                  "name": "decision",
                  "type": "uint8"
                },
                {
                  "internalType": "enum BlockBet.WinnerVote",
                  "name": "winnerVote",
                  "type": "uint8"
                }
              ],
              "internalType": "struct BlockBet.Punter",
              "name": "challenger",
              "type": "tuple"
            },
            {
              "internalType": "enum BlockBet.Status",
              "name": "status",
              "type": "uint8"
            }
          ],
          "internalType": "struct BlockBet.Bet[]",
          "name": "",
          "type": "tuple[]"
        }
      ],
      "stateMutability": "view",
      "type": "function",
      "constant": true
    }
  ],
  "bytecode": "0x608060405234801561001057600080fd5b5030600260006101000a81548173ffffffffffffffffffffffffffffffffffffffff021916908373ffffffffffffffffffffffffffffffffffffffff160217905550611ae5806100616000396000f3fe608060405234801561001057600080fd5b506004361061004c5760003560e01c8063078d160014610051578063a6afd5fd14610081578063e2fdcc171461009f578063e75fad03146100bd575b600080fd5b61006b60048036038101906100669190611148565b6100ed565b6040516100789190611461565b60405180910390f35b61008961054a565b60405161009691906115ea565b60405180910390f35b6100a7610928565b6040516100b4919061161b565b60405180910390f35b6100d760048036038101906100d29190611687565b61094e565b6040516100e49190611711565b60405180910390f35b6100f5610e7f565b60005b60008054905081101561054357826040516020016101169190611768565b60405160208183030381529060405280519060200120600082815481106101405761013f61177f565b5b906000526020600020906007020160000160405160200161016191906118a2565b604051602081830303815290604052805190602001200361053057600081815481106101905761018f61177f565b5b90600052602060002090600702016040518060e00160405290816000820180546101b9906117dd565b80601f01602080910402602001604051908101604052809291908181526020018280546101e5906117dd565b80156102325780601f1061020757610100808354040283529160200191610232565b820191906000526020600020905b81548152906001019060200180831161021557829003601f168201915b5050505050815260200160018201548152602001600282018054610255906117dd565b80601f0160208091040260200160405190810160405280929190818152602001828054610281906117dd565b80156102ce5780601f106102a3576101008083540402835291602001916102ce565b820191906000526020600020905b8154815290600101906020018083116102b157829003601f168201915b505050505081526020016003820160009054906101000a900473ffffffffffffffffffffffffffffffffffffffff1673ffffffffffffffffffffffffffffffffffffffff1673ffffffffffffffffffffffffffffffffffffffff168152602001600482016040518060600160405290816000820160009054906101000a900473ffffffffffffffffffffffffffffffffffffffff1673ffffffffffffffffffffffffffffffffffffffff1673ffffffffffffffffffffffffffffffffffffffff1681526020016000820160149054906101000a900460ff1660028111156103b8576103b7611273565b5b60028111156103ca576103c9611273565b5b81526020016000820160159054906101000a900460ff1660028111156103f3576103f2611273565b5b600281111561040557610404611273565b5b815250508152602001600582016040518060600160405290816000820160009054906101000a900473ffffffffffffffffffffffffffffffffffffffff1673ffffffffffffffffffffffffffffffffffffffff1673ffffffffffffffffffffffffffffffffffffffff1681526020016000820160149054906101000a900460ff16600281111561049857610497611273565b5b60028111156104aa576104a9611273565b5b81526020016000820160159054906101000a900460ff1660028111156104d3576104d2611273565b5b60028111156104e5576104e4611273565b5b8152505081526020016006820160009054906101000a900460ff16600381111561051257610511611273565b5b600381111561052457610523611273565b5b81525050915050610545565b808061053b906118e8565b9150506100f8565b505b919050565b60606000805480602002602001604051908101604052809291908181526020016000905b8282101561091f57838290600052602060002090600702016040518060e00160405290816000820180546105a1906117dd565b80601f01602080910402602001604051908101604052809291908181526020018280546105cd906117dd565b801561061a5780601f106105ef5761010080835404028352916020019161061a565b820191906000526020600020905b8154815290600101906020018083116105fd57829003601f168201915b505050505081526020016001820154815260200160028201805461063d906117dd565b80601f0160208091040260200160405190810160405280929190818152602001828054610669906117dd565b80156106b65780601f1061068b576101008083540402835291602001916106b6565b820191906000526020600020905b81548152906001019060200180831161069957829003601f168201915b505050505081526020016003820160009054906101000a900473ffffffffffffffffffffffffffffffffffffffff1673ffffffffffffffffffffffffffffffffffffffff1673ffffffffffffffffffffffffffffffffffffffff168152602001600482016040518060600160405290816000820160009054906101000a900473ffffffffffffffffffffffffffffffffffffffff1673ffffffffffffffffffffffffffffffffffffffff1673ffffffffffffffffffffffffffffffffffffffff1681526020016000820160149054906101000a900460ff1660028111156107a05761079f611273565b5b60028111156107b2576107b1611273565b5b81526020016000820160159054906101000a900460ff1660028111156107db576107da611273565b5b60028111156107ed576107ec611273565b5b815250508152602001600582016040518060600160405290816000820160009054906101000a900473ffffffffffffffffffffffffffffffffffffffff1673ffffffffffffffffffffffffffffffffffffffff1673ffffffffffffffffffffffffffffffffffffffff1681526020016000820160149054906101000a900460ff1660028111156108805761087f611273565b5b600281111561089257610891611273565b5b81526020016000820160159054906101000a900460ff1660028111156108bb576108ba611273565b5b60028111156108cd576108cc611273565b5b8152505081526020016006820160009054906101000a900460ff1660038111156108fa576108f9611273565b5b600381111561090c5761090b611273565b5b815250508152602001906001019061056e565b50505050905090565b600260009054906101000a900473ffffffffffffffffffffffffffffffffffffffff1681565b6000808411610992576040517f08c379a00000000000000000000000000000000000000000000000000000000081526004016109899061198d565b60405180910390fd5b833373ffffffffffffffffffffffffffffffffffffffff163110156109ec576040517f08c379a00000000000000000000000000000000000000000000000000000000081526004016109e3906119f9565b60405180910390fd5b600a6109f783610e37565b11610a37576040517f08c379a0000000000000000000000000000000000000000000000000000000008152600401610a2e90611a65565b60405180910390fd5b600060405180606001604052803373ffffffffffffffffffffffffffffffffffffffff168152602001856002811115610a7357610a72611273565b5b815260200160006002811115610a8c57610a8b611273565b5b815250905060006040518060600160405280600073ffffffffffffffffffffffffffffffffffffffff16815260200160006002811115610acf57610ace611273565b5b815260200160006002811115610ae857610ae7611273565b5b815250905060006040518060e00160405280610b02610e42565b8152602001888152602001868152602001600073ffffffffffffffffffffffffffffffffffffffff16815260200184815260200183815260200160006003811115610b5057610b4f611273565b5b8152509050600260009054906101000a900473ffffffffffffffffffffffffffffffffffffffff1673ffffffffffffffffffffffffffffffffffffffff163373ffffffffffffffffffffffffffffffffffffffff167fddf252ad1be2c89b69c2b068fc378daa952ba7f163c4a11628f55a4df523b3ef89604051610bd49190611a94565b60405180910390a360008190806001815401808255809150506001900390600052602060002090600702016000909190919091506000820151816000019080519060200190610c24929190610ef0565b50602082015181600101556040820151816002019080519060200190610c4b929190610ef0565b5060608201518160030160006101000a81548173ffffffffffffffffffffffffffffffffffffffff021916908373ffffffffffffffffffffffffffffffffffffffff16021790555060808201518160040160008201518160000160006101000a81548173ffffffffffffffffffffffffffffffffffffffff021916908373ffffffffffffffffffffffffffffffffffffffff16021790555060208201518160000160146101000a81548160ff02191690836002811115610d0e57610d0d611273565b5b021790555060408201518160000160156101000a81548160ff02191690836002811115610d3e57610d3d611273565b5b0217905550505060a08201518160050160008201518160000160006101000a81548173ffffffffffffffffffffffffffffffffffffffff021916908373ffffffffffffffffffffffffffffffffffffffff16021790555060208201518160000160146101000a81548160ff02191690836002811115610dc057610dbf611273565b5b021790555060408201518160000160156101000a81548160ff02191690836002811115610df057610def611273565b5b0217905550505060c08201518160060160006101000a81548160ff02191690836003811115610e2257610e21611273565b5b02179055505050600193505050509392505050565b600081519050919050565b60606040518060400160405280600a81526020017f3132333435363738393000000000000000000000000000000000000000000000815250905090565b6040518060e00160405280606081526020016000815260200160608152602001600073ffffffffffffffffffffffffffffffffffffffff168152602001610ec4610f76565b8152602001610ed1610f76565b815260200160006003811115610eea57610ee9611273565b5b81525090565b828054610efc906117dd565b90600052602060002090601f016020900481019282610f1e5760008555610f65565b82601f10610f3757805160ff1916838001178555610f65565b82800160010185558215610f65579182015b82811115610f64578251825591602001919060010190610f49565b5b509050610f729190610fd1565b5090565b6040518060600160405280600073ffffffffffffffffffffffffffffffffffffffff16815260200160006002811115610fb257610fb1611273565b5b815260200160006002811115610fcb57610fca611273565b5b81525090565b5b80821115610fea576000816000905550600101610fd2565b5090565b6000604051905090565b600080fd5b600080fd5b600080fd5b600080fd5b6000601f19601f8301169050919050565b7f4e487b7100000000000000000000000000000000000000000000000000000000600052604160045260246000fd5b6110558261100c565b810181811067ffffffffffffffff821117156110745761107361101d565b5b80604052505050565b6000611087610fee565b9050611093828261104c565b919050565b600067ffffffffffffffff8211156110b3576110b261101d565b5b6110bc8261100c565b9050602081019050919050565b82818337600083830152505050565b60006110eb6110e684611098565b61107d565b90508281526020810184848401111561110757611106611007565b5b6111128482856110c9565b509392505050565b600082601f83011261112f5761112e611002565b5b813561113f8482602086016110d8565b91505092915050565b60006020828403121561115e5761115d610ff8565b5b600082013567ffffffffffffffff81111561117c5761117b610ffd565b5b6111888482850161111a565b91505092915050565b600081519050919050565b600082825260208201905092915050565b60005b838110156111cb5780820151818401526020810190506111b0565b838111156111da576000848401525b50505050565b60006111eb82611191565b6111f5818561119c565b93506112058185602086016111ad565b61120e8161100c565b840191505092915050565b6000819050919050565b61122c81611219565b82525050565b600073ffffffffffffffffffffffffffffffffffffffff82169050919050565b600061125d82611232565b9050919050565b61126d81611252565b82525050565b7f4e487b7100000000000000000000000000000000000000000000000000000000600052602160045260246000fd5b600381106112b3576112b2611273565b5b50565b60008190506112c4826112a2565b919050565b60006112d4826112b6565b9050919050565b6112e4816112c9565b82525050565b600381106112fb576112fa611273565b5b50565b600081905061130c826112ea565b919050565b600061131c826112fe565b9050919050565b61132c81611311565b82525050565b6060820160008201516113486000850182611264565b50602082015161135b60208501826112db565b50604082015161136e6040850182611323565b50505050565b6004811061138557611384611273565b5b50565b600081905061139682611374565b919050565b60006113a682611388565b9050919050565b6113b68161139b565b82525050565b60006101608301600083015184820360008601526113da82826111e0565b91505060208301516113ef6020860182611223565b506040830151848203604086015261140782826111e0565b915050606083015161141c6060860182611264565b50608083015161142f6080860182611332565b5060a083015161144260e0860182611332565b5060c08301516114566101408601826113ad565b508091505092915050565b6000602082019050818103600083015261147b81846113bc565b905092915050565b600081519050919050565b600082825260208201905092915050565b6000819050602082019050919050565b60006101608301600083015184820360008601526114cd82826111e0565b91505060208301516114e26020860182611223565b50604083015184820360408601526114fa82826111e0565b915050606083015161150f6060860182611264565b5060808301516115226080860182611332565b5060a083015161153560e0860182611332565b5060c08301516115496101408601826113ad565b508091505092915050565b600061156083836114af565b905092915050565b6000602082019050919050565b600061158082611483565b61158a818561148e565b93508360208202850161159c8561149f565b8060005b858110156115d857848403895281516115b98582611554565b94506115c483611568565b925060208a019950506001810190506115a0565b50829750879550505050505092915050565b600060208201905081810360008301526116048184611575565b905092915050565b61161581611252565b82525050565b6000602082019050611630600083018461160c565b92915050565b61163f81611219565b811461164a57600080fd5b50565b60008135905061165c81611636565b92915050565b6003811061166f57600080fd5b50565b60008135905061168181611662565b92915050565b6000806000606084860312156116a05761169f610ff8565b5b60006116ae8682870161164d565b93505060206116bf86828701611672565b925050604084013567ffffffffffffffff8111156116e0576116df610ffd565b5b6116ec8682870161111a565b9150509250925092565b60008115159050919050565b61170b816116f6565b82525050565b60006020820190506117266000830184611702565b92915050565b600081905092915050565b600061174282611191565b61174c818561172c565b935061175c8185602086016111ad565b80840191505092915050565b60006117748284611737565b915081905092915050565b7f4e487b7100000000000000000000000000000000000000000000000000000000600052603260045260246000fd5b7f4e487b7100000000000000000000000000000000000000000000000000000000600052602260045260246000fd5b600060028204905060018216806117f557607f821691505b602082108103611808576118076117ae565b5b50919050565b60008190508160005260206000209050919050565b60008154611830816117dd565b61183a818661172c565b94506001821660008114611855576001811461186657611899565b60ff19831686528186019350611899565b61186f8561180e565b60005b8381101561189157815481890152600182019150602081019050611872565b838801955050505b50505092915050565b60006118ae8284611823565b915081905092915050565b7f4e487b7100000000000000000000000000000000000000000000000000000000600052601160045260246000fd5b60006118f382611219565b91507fffffffffffffffffffffffffffffffffffffffffffffffffffffffffffffffff8203611925576119246118b9565b5b600182019050919050565b600082825260208201905092915050565b7f56616c7565206d7573742062652067726561746572207468616e203000000000600082015250565b6000611977601c83611930565b915061198282611941565b602082019050919050565b600060208201905081810360008301526119a68161196a565b9050919050565b7f496e73756666696369656e742062616c616e6365000000000000000000000000600082015250565b60006119e3601483611930565b91506119ee826119ad565b602082019050919050565b60006020820190508181036000830152611a12816119d6565b9050919050565b7f4465736372697074696f6e20746f6f2073686f72740000000000000000000000600082015250565b6000611a4f601583611930565b9150611a5a82611a19565b602082019050919050565b60006020820190508181036000830152611a7e81611a42565b9050919050565b611a8e81611219565b82525050565b6000602082019050611aa96000830184611a85565b9291505056fea2646970667358221220bdca7c75156f204a1c6de0cb03c7533e292a63f861d965422ffd9566bbce677464736f6c634300080d0033",
  "immutableReferences": {},
  "source": "// SPDX-License-Identifier: MIT\n// Tells the Solidity compiler to compile only from v0.8.13 to v0.9.\npragma solidity ^0.8.13;\n\ncontract BlockBet {\n    enum Decision {\n        UNDEFINED,\n        TRUE,\n        FALSE\n    }\n\n    enum WinnerVote {\n        UNDEFINED,\n        OWNER,\n        CHALLENGER\n    }\n\n    enum Status {\n        OPEN,\n        CHALLENGED,\n        FINISHED,\n        INVALID\n    }\n\n    struct Punter {\n        address punterAddress;\n        Decision decision;\n        WinnerVote winnerVote;\n    }\n\n    struct OracleDecision {\n        address orableAddress;\n        bool oracleDecision;\n    }\n\n    //\n\n    struct Bet {\n        string uuid;\n        uint value;\n        string description;\n        address result;\n        Punter owner;\n        Punter challenger;\n        //OracleDecision[] oracles;\n        Status status;\n    }\n\n    Bet[] private bets;\n    mapping(address => uint) reputations;\n    address public escrow;\n\n    event Transfer(address indexed _from, address indexed _to, uint256 _value);\n\n    constructor() {\n        escrow = address(this);\n    }\n\n    function createBet(\n        uint value,\n        Decision ownerDecision,\n        string memory description\n    ) public returns (bool sufficient) {\n        require(value > 0, \"Value must be greater than 0\");\n        require(msg.sender.balance >= value, \"Insufficient balance\");\n        require(stringLength(description) > 10, \"Description too short\");\n\n        Punter memory owner = Punter({\n            punterAddress: msg.sender,\n            decision: ownerDecision,\n            winnerVote: WinnerVote.UNDEFINED\n        });\n\n        Punter memory emptyChallenger = Punter({\n            punterAddress: address(0),\n            decision: Decision.UNDEFINED,\n            winnerVote: WinnerVote.UNDEFINED\n        });\n\n        Bet memory newBet = Bet({\n            uuid: generateUUID(),\n            value: value,\n            description: description,\n            result: address(0),\n            owner: owner,\n            challenger: emptyChallenger,\n            // oracles: [],\n            status: Status.OPEN\n        });\n\n        emit Transfer(msg.sender, escrow, value);\n        bets.push(newBet);\n\n        return true;\n    }\n\n    function getBet(string memory uuid) public view returns (Bet memory bet) {\n        for (uint i = 0; i < bets.length; i++) {\n            if (\n                keccak256(abi.encodePacked(bets[i].uuid)) ==\n                keccak256(abi.encodePacked(uuid))\n            ) {\n                return bets[i];\n            }\n        }\n    }\n\n    function getBets() public view returns (Bet[] memory) {\n        return bets;\n    }\n\n    /*\n\n    function challengeBet() {\n\n    }\n\n    function setDecision() {\n\n    }\n\n    function auditBet() {\n\n    } */\n\n    function generateUUID() private pure returns (string memory) {\n        return \"1234567890\";\n    }\n\n    function stringLength(string memory str) private pure returns (uint) {\n        return bytes(str).length;\n    }\n}\n",
  "sourcePath": "/app/contracts/BlockBet.sol",
  "compiler": {
    "name": "solc",
    "version": "0.8.13+commit.abaa5c0e.Emscripten.clang"
  },
  "schemaVersion": "3.4.16",
  "updatedAt": "2024-08-05T01:56:59.790Z",
  "networkType": "ethereum",
  "devdoc": {
    "kind": "dev",
    "methods": {},
    "version": 1
  },
  "userdoc": {
    "kind": "user",
    "methods": {},
    "version": 1
  }
}